{
  "contractName": "WCCFaucet",
  "abi": [
    {
      "constant": true,
      "inputs": [],
      "name": "WCC_Owner",
      "outputs": [
        {
          "name": "",
          "type": "address"
        }
      ],
      "payable": false,
      "stateMutability": "view",
      "type": "function"
    },
    {
      "constant": true,
      "inputs": [],
      "name": "WC_Coin",
      "outputs": [
        {
          "name": "",
          "type": "address"
        }
      ],
      "payable": false,
      "stateMutability": "view",
      "type": "function"
    },
    {
      "inputs": [
        {
          "name": "_WCCoin",
          "type": "address"
        },
        {
          "name": "_WCCOwner",
          "type": "address"
        }
      ],
      "payable": false,
      "stateMutability": "nonpayable",
      "type": "constructor"
    },
    {
      "payable": true,
      "stateMutability": "payable",
      "type": "fallback"
    },
    {
      "constant": false,
      "inputs": [
        {
          "name": "withdraw_amount",
          "type": "uint256"
        }
      ],
      "name": "withdraw",
      "outputs": [],
      "payable": false,
      "stateMutability": "nonpayable",
      "type": "function"
    }
  ],
  "bytecode": "0x608060405234801561001057600080fd5b506040516040806104038339810180604052604081101561003057600080fd5b810190808051906020019092919080519060200190929190505050816000806101000a81548173ffffffffffffffffffffffffffffffffffffffff021916908373ffffffffffffffffffffffffffffffffffffffff16021790555080600160006101000a81548173ffffffffffffffffffffffffffffffffffffffff021916908373ffffffffffffffffffffffffffffffffffffffff1602179055505050610326806100dd6000396000f3fe608060405260043610610057576000357c0100000000000000000000000000000000000000000000000000000000900463ffffffff1680632e1a7d4d1461005c57806344b37d5914610097578063edb033ba146100ee575b600080fd5b34801561006857600080fd5b506100956004803603602081101561007f57600080fd5b8101908080359060200190929190505050610145565b005b3480156100a357600080fd5b506100ac6102af565b604051808273ffffffffffffffffffffffffffffffffffffffff1673ffffffffffffffffffffffffffffffffffffffff16815260200191505060405180910390f35b3480156100fa57600080fd5b506101036102d5565b604051808273ffffffffffffffffffffffffffffffffffffffff1673ffffffffffffffffffffffffffffffffffffffff16815260200191505060405180910390f35b6103e8811115151561015657600080fd5b6000809054906101000a900473ffffffffffffffffffffffffffffffffffffffff1673ffffffffffffffffffffffffffffffffffffffff166323b872dd600160009054906101000a900473ffffffffffffffffffffffffffffffffffffffff1633846040518463ffffffff167c0100000000000000000000000000000000000000000000000000000000028152600401808473ffffffffffffffffffffffffffffffffffffffff1673ffffffffffffffffffffffffffffffffffffffff1681526020018373ffffffffffffffffffffffffffffffffffffffff1673ffffffffffffffffffffffffffffffffffffffff1681526020018281526020019350505050602060405180830381600087803b15801561027057600080fd5b505af1158015610284573d6000803e3d6000fd5b505050506040513d602081101561029a57600080fd5b81019080805190602001909291905050505050565b600160009054906101000a900473ffffffffffffffffffffffffffffffffffffffff1681565b6000809054906101000a900473ffffffffffffffffffffffffffffffffffffffff168156fea165627a7a723058208e4e6b19272c661b97f2b3ec8e4ad2130b56e8d39e546343cd40ac326f53e1e80029",
  "source": "// Version of Solidity compiler this program was written for\npragma solidity ^0.5.0;\n\nimport \"./WCCoin.sol\";\n\n\n// A faucet for ERC20 token WCC\ncontract WCCFaucet {\n\n\tWCCoin public WC_Coin;\n\taddress public WCC_Owner;\n\n\t// WCCFaucet constructor, provide the address of WCCoken contract and\n\t// the owner address we will be approved to transferFrom\n\tconstructor (address _WCCoin, address _WCCOwner) public {\n\t\t// Initialize the WCCoin from the address provided\n\t\tWC_Coin = WCCoin(_WCCoin);\n\t\tWCC_Owner = _WCCOwner;\n\t}\n\n\tfunction withdraw(uint withdraw_amount) public {\n\n   \t// Limit withdrawal amount to 10 MET\n   \trequire(withdraw_amount <= 1000);\n\n\t\t// Use the transferFrom function of WCCoin\n\t\tWC_Coin.transferFrom(WCC_Owner, msg.sender, withdraw_amount);\n  }\n\n\t// REJECT any incoming ether\n\tfunction () external payable { revert(); }\n\n}\n",
  "sourcePath": "/Users/kevinweaver/github.com/kevinweaver/wc-coin/contracts/WCCFaucet.sol",
  "compiler": {
    "name": "solc",
    "version": "0.5.0+commit.1d4f565a.Emscripten.clang"
  },
  "schemaVersion": "3.0.0",
  "updatedAt": "2019-01-31T02:57:14.255Z",
  "devdoc": {
    "methods": {}
  },
  "userdoc": {
    "methods": {}
  }
}